:100000000C9473010C9494010C9494010C9494013D
:100010000C9494010C9494010C9494010C9494010C
:100020000C9494010C9494010C9494010C949401FC
:100030000C9494010C9494010C9494010C949401EC
:100040000C9494010C9494010C9494010C949401DC
:100050000C9494010C9494010C9494010C949401CC
:100060000C9494010C9494010C9494010C949401BC
:100070000C9494010C9494010C9494010C949401AC
:100080000C9494010C9494010C9494010C9494019C
:100090000C9494010C9494010C9494010C9494018C
:1000A0000C9494010C9494010C9494010C9494017C
:1000B0000C9494010C9494010C9494010C9494016C
:1000C0000C9494010C9494010C9494010C9494015C
:1000D0000C9494010C9494010C9494010C9494014C
:1000E0000C9494010C9494010C9494010C9494013C
:1000F0000C9494010C9494010C9494010C9494012C
:100100000C9494010C9494010C9494010C9494011B
:100110000C9494010C9494010C9494010C9494010B
:100120000C9494010C9494010C9494010C949401FB
:100130000C9494010C9494010C9494010C949401EB
:100140000C9494010C9494010C9494010C949401DB
:100150000C9494010C9494010C9494010C949401CB
:100160000C9494010C9494010C9494010C949401BB
:100170000C9494010C9494010C9494010C949401AB
:100180000C9494010C9494010C9494010C9494019B
:100190000C9494010C9494010C9494010C9494018B
:1001A0000C9494010C9494010C9494010C9494017B
:1001B0000C9494010C9494010C9494010C9494016B
:1001C0000C9494010C9494010C9496010C949C0151
:1001D0000C94C6010C94A0010C949801010204082F
:1001E000102040801B36637C777BF26B6FC530013B
:1001F000672BFED7AB76CA82C97DFA5947F0ADD4DA
:10020000A2AF9CA472C0B7FD9326363FF7CC34A5AD
:10021000E5F171D8311504C723C31896059A071262
:1002200080E2EB27B27509832C1A1B6E5AA0523B51
:10023000D6B329E32F8453D100ED20FCB15B6ACB08
:10024000BE394A4C58CFD0EFAAFB434D338545F910
:10025000027F503C9FA851A3408F929D38F5BCB6B9
:10026000DA2110FFF3D2CD0C13EC5F974417C4A72B
:100270007E3D645D197360814FDC222A908846EED2
:10028000B814DE5E0BDBE0323A0A4906245CC2D3C6
:10029000AC629195E479E7C8376D8DD54EA96C565F
:1002A000F4EA657AAE08BA78252E1CA6B4C6E8DD55
:1002B000741F4BBD8B8A703EB5664803F60E6135E0
:1002C00057B986C11D9EE1F8981169D98E949B1E7D
:1002D00087E9CE5528DF8CA1890DBFE64268419998
:1002E0002D0FB054BB1611241FBECFEFCDBFDFE3DF
:1002F000DEBF00E00CBF10E2A0E0B0E2E0E8FCE00E
:1003000000E00BBF02C007900D92A232B107D9F7EF
:1003100021E2A2E2B0E201C01D92A432B207E1F7ED
:100320000E94F9050C943E060C94000080E00895AC
:100330000E94050480E008950E94FB0380E0089578
:10034000FF920F931F93CF93DF93D82FC92F0E9453
:10035000030400E016E0FF24F394F801F5828D2FEA
:100360009C2F0E94FF03F801F6828D2F9C2F0E9484
:1003700004044D2F5C2F60E182E70E944F0280E071
:10038000DF91CF911F910F91FF90089581E0089523
:10039000282F80E046EA615008F40895E22FF92FF3
:1003A0009191892728E030E087FF08C0880F8427D3
:1003B00021503109C9F72E2F9F2FEDCF880FF8CF8D
:1003C0009C01FA01DB0150E040E0421753071CF0AA
:1003D00090E080E008958C9111969C91119760EDCA
:1003E000690F6A3078F4608390ED980F9A30D0F4FA
:1003F0008295807F9081892B80834F5F5F4F3196FC
:100400001296E3CF6FEB690F663018F49753908321
:10041000EBCF6FE9690F663018F081E090E0089546
:100420009755F5CF9FEB980F963040F48753990B73
:1004300064E0880F991F6A95E1F7DCCF9FE9980F78
:10044000963058F78755990BF3CF20917220309151
:10045000732020313105CCF4603C7105B0F495E097
:10046000929FF001939FF00D1124EE5DFF4D80836C
:1004700061837283438354832F5F3F4F20937220A5
:100480003093732090E080E0089581E090E008953B
:1004900046EC51E070E060E086E70C942502FF92A4
:1004A0000F931F93CF93DF93162FF42E052F0E94E7
:1004B0004F03CF2DD02FCE01810F911D8C01C0177E
:1004C000D10741F48AE0DF91CF911F910F91FF9006
:1004D0000C944F03E991E295EF70F0E0E050F04E9C
:1004E00080810E944F03FE013197E081EF70F0E0C0
:1004F000E050F04E80810E944F03E1CF8F929F9297
:10050000AF92BF92CF92DF92EF92FF920F931F9321
:10051000CF93DF93CDB7DEB7C154D240CDBFDEBF9E
:100520000E944803409172205091732022E230E2F1
:1005300010E000E0041715070CF45DC040175107E8
:1005400009F448C09E012F5F3F4F7901D12CC12C87
:10055000490125E0209FC001219F900D1124DC015D
:10056000AD5DBF4D5D01D5018D919C91880F991FA7
:10057000C816D90608F44AC00E9448038A3011F010
:100580008D3041F525E0209FC001219F900D112461
:100590008C010E5D1F4DAE014F575E4FB401F80147
:1005A000818192810E94E001892BA1F4D8011396E8
:1005B000ED91FC91CE018F579E4F1995CF5BDD4F8A
:1005C0008883C154D240AE014F5B5D4F61E08AE742
:1005D0000E944F02CF5BDD4FCDBFDEBFDF91CF91D9
:1005E0001F910F91FF90EF90DF90CF90BF90AF9051
:1005F0009F908F9008952B5F3F4FF9013597908121
:10060000981709F49FCF0F5F1F4F94CF0E944803A4
:100610008A3001F38D30F1F2F70181937F01FFEF12
:10062000CF1ADF0AA0CFE0E4F6E088E0818384E01F
:100630008283E0EAF8E083E085838BE0868317829B
:100640008481806184838481886084830895CF93CA
:10065000DF930F920F92CDB7DEB7FC0169837A83E7
:1006600090E080E029813A812817390711F480E071
:1006700008C02091A10827FF09C08091A0088083AD
:1006800081E00F900F90DF91CF9108950196EACF0E
:100690008091A10887FFFCCF8091A00808959091D8
:1006A000A10895FFFCCF8093A0080895FC0160830A
:1006B0007183428314861386168615860895FC017D
:1006C00062830895FC01958526859F5F937081E084
:1006D000921301C080E008951F93CF93DF93EC0144
:1006E000162F0E946203882379F09D85FE01E90F91
:1006F000F11D17839F5F93709D87E881F981938136
:100700009C7F2A81922B9383DF91CF911F91089533
:10071000FC012385948581E0291301C080E00895C0
:10072000FC018485DF01A80FB11D13968C9194857F
:100730009F5F937094870895FC0183858F5F83701A
:100740002485A081B1819C91821749F02385DF0126
:10075000A20FB11D13969C93838781E0089580E0DA
:100760000895CF93DF93FC0186859585A081B181A3
:10077000981309C013968C9113978C7F13968C93C2
:10078000DF91CF9108958685EF01C80FD11D8F812C
:100790008C9386858F5F83708687F2CFFC01CB01B7
:1007A000248170FF04C021602483808308952E7FFC
:1007B000FBCFFC01848180FF04C0808190E09160C8
:1007C0000895808190E00895109252001092550093
:1007D000809150008860809350008091510083FF89
:1007E000FCCF88ED84BF83E08093400088E0809355
:1007F00050000895089564E770E20C94DA0564E708
:1008000070E20C94E905089508950895CF93DF935D
:1008100000D00F92CDB7DEB7FC018081898384813F
:100820008A8380858B8384858C83862F90E0637098
:10083000A1E0B0E0AC0FBD1FA60FB11D2C9120832D
:10084000DC011196A370BB2721E030E02C0F3D1F87
:10085000A20FB31F2C912483DC011296A370BB2737
:1008600021E030E02C0F3D1FA20FB31F2C912087F9
:10087000039683709927A1E0B0E0AC0FBD1F8A0FEB
:100880009B1FDC018C9184872496CDBFDEBFDF9156
:10089000CF9108952F923F924F925F926F927F92E5
:1008A0008F929F92AF92BF92CF92DF92EF92FF9280
:1008B0000F931F93CF93DF93CDB7DEB76197CDBF73
:1008C000DEBF7C016B013C014C0180E1880E911C74
:1008D000F7018191DB019D91BD019F0121503109FB
:1008E0008927D9018C93E815F90599F722242394D7
:1008F0004F5F498B89898219823008F042C0D70145
:10090000ED91F0E0EA51FE4F2491CD010197FC01F9
:100910002083A815B905A1F761E0C70101960E94DF
:10092000060462E0C70102960E94060463E0C70164
:1009300003960E94060480E1289EF0011124EC0D2C
:10094000FD1DD3018D913D019191119789278C93C4
:1009500068147904B1F76196CDBFDEBFDF91CF9106
:100960001F910F91FF90EF90DF90CF90BF90AF90CD
:100970009F908F907F906F905F904F903F902F90BF
:1009800008958E010F5F1F4FC801D701ED91F0E070
:10099000EA51FE4F2491FC012193CF01A815B9051E
:1009A000A9F761E0CE0102960E94060462E0CE0142
:1009B00003960E94060463E0CE0104960E9406049A
:1009C0002801F0E14F0E511C5701D8016C9111968E
:1009D0008C911197682712963C90129713968C91E0
:1009E000382636264BE182E00E94EC05F801908122
:1009F00089278325D5018C936181828168274BE10A
:100A000082E00E94EC05F801918189278325D501B8
:100A100011968C936281838168274BE182E00E946A
:100A2000EC05F801928189278325D50112968C93D4
:100A30006381808168274BE182E00E94EC05F80128
:100A4000938189273826D50113963C920C5F1F4F5E
:100A5000B4E0AB0EB11C0415150509F0B6CFE0E10A
:100A60002E9ED0011124AD014C0D5D1DF701819129
:100A7000DA019D91AD019F01215031098927D901EA
:100A80008C93E815F90599F7239434CFCF92DF9230
:100A9000EF92FF920F931F93CF93DF93D42FC52F25
:100AA0007B0145E0F694E7944A95E1F70E2D17E0B7
:100AB0001E0D110F110FAB0163E0569547956A9516
:100AC000E1F7BC018D2F9C2F0E9435062D2F3C2F66
:100AD000E701DD27CC0FDD1FCC0FDD1FC20FD31FB9
:100AE0007E2D5E2D60E0511748F0DF91CF911F9170
:100AF0000F91FF90EF90DF90CF900895FE01349713
:100B0000F0804181D280E3808F2D942FAD2DBE2DBA
:100B1000571771F10830E1F4E52FE770E430C1F4C4
:100B2000EF2DF0E0EA51FE4FE4918E2FE42FF0E03C
:100B3000EA51FE4FE4919E2FED2DF0E0EA51FE4F79
:100B4000E491AE2FEE2DF0E0EA51FE4FE491BE2F7E
:100B5000F901C190D190E190F1909F018C259D25E4
:100B6000AE25BF2589939993A993B9935F5FBBCFB6
:100B7000752F700FE42FF0E0EA51FE4F4491ED2DF8
:100B8000F0E0EA51FE4FE4919E2FEE2DF0E0EA51A5
:100B9000FE4FE491AE2FEF2DF0E0EA51FE4FE491CD
:100BA000BE2FE62FF0E0E452FE4FE491842F8E2713
:100BB0006F5FCECFAB0160E870E00C944605AB01EF
:100BC00060EC70E00C944605AB0160E071E00C94C1
:100BD00046054AE00C944A04782F8827769531F030
:100BE00008F48627660F08F46427F8CF08F48627F0
:100BF0000895CDB7DEB76097CDBFDEBF80E1E0E1FD
:100C0000F0E2DE01119601900D928A95E1F70E94C3
:100C1000E4030E94130381E0809301060E94FA031B
:100C2000CE0101960E94FB030E9448024CE951E06C
:100C300060E170E08BE60E94250240EA51E060E14D
:100C400070E080E70E94250246E951E070E060E034
:100C500088E70E94250248E951E062E170E08DE6F4
:100C60000E9425020E947E02FDCFFB01DC0102C032
:100C700001900D9241505040D8F70895F894FFCF5D
:100C800030313233343536373839414243444546C2
:100C90002B7E151628AED2A6ABF7158809CF4F3C90
:020CA000000052
:00000001FF
